:100000000C942A000C9447000C9447000C94470071
:100010000C9447000C9447000C9447000C94470044
:100020000C9447000C9447000C9447000C94470034
:100030000C9447000C9447000C9447000C94470024
:100040000C9447000C9447000C9447000C94470014
:100050000C94470011241FBECFE5D4E0DEBFCDBF16
:1000600010E0A0E6B0E0ECEEF0E002C005900D92EA
:10007000A036B107D9F710E0A0E6B0E001C01D92AC
:10008000A036B107E1F70E9449000C9474000C946B
:1000900000001ABA8FEF87BB84BB81BB70EE65E5A9
:1000A00028EC30E05AEA40EC7BBB89B3807780369D
:1000B00081F462BB88EE93E0F9013197F1F7019783
:1000C000D9F752BB88EE93E0F9013197F1F7019728
:1000D000D9F789B389B3807E803C11F445BBE4CF66
:0C00E00012BA18BA15BAE0CFF894FFCF9E
:00000001FF
